:020000040000FA
:10000000282F0020030200000F0200001102000050
:1000100000000000000000000000000000000000E0
:100020000000000000000000000000005933000044
:100030000000000000000000870100005D330000A8
:100040001902000019020000190200001902000044
:100050001902000019020000190200001902000034
:100060001902000019020000190200001902000024
:100070001902000019020000190200001902000014
:1000800019020000353500001902000019020000B5
:1000900019020000190200001902000019020000F4
:1000A00019020000190200001902000019020000E4
:1000B0001902000019020000190200001D110000C1
:1000C00000F002F800F030F80CA030C8083824180E
:1000D0002D18A246671EAB4654465D46AC4201D180
:1000E00000F022F87E460F3E0FCCB6460126334282
:1000F00000D0FB1AA246AB4633431847E468000021
:10010000046900000023002400250026103A01D3D2
:1001100078C1FBD8520700D330C100D50B607047BF
:100120001FB51FBD10B510BD00F0B0FA114603B4E5
:1001300003F0C8FF03BCFFF7F3FF04F039F800F049
:10014000C4FA03B4FFF7EEFF03BC00F093FA00001B
:10015000084B19680868203080F30988022080F372
:100160001488BFF36F8F3FBCAE4608BC04BC62B6B8
:1001700018470000E4F0FF1FEFF3108072B67047DD
:1001800080F310887047EFF309800E4B1A6820380F
:100190001060F0C044464D4656465F46F0C008B574
:1001A00072B605F06DFB62B60CBC116808681030C1
:1001B000F0C8A046A946B246BB4680F3098820385D
:1001C000F0C81847E4F0FF1F70B505460C46164608
:1001D00002E00FCC0FC5103E102EFAD2082E02D32B
:1001E00003CC03C5083E042E07D301CC01C5361F3E
:1001F00003E021782970641C6D1C761EF9D270BD55
:100200007047094880470948804709480047FEE78A
:10021000FEE7FEE7FEE7FEE7FEE7000005480649C9
:10022000064A074B70470000C93400000102000075
:10023000C1000000282B0020282F0020282E00209D
:10024000282E00204343514330B55C18010C130C99
:100250000D4692B25D4380B251432C190546554379
:100260000A0C09044D1962415843010C000440195D
:10027000514130BDFEB5054610460C46184373D0BB
:10028000AE468C460020AD1A01469C4167D36646B7
:10029000002701243D46B61A9D4102D313463A4633
:1002A0002124654676462F04360C3E432D0CB61AA3
:1002B0009D4104D3150C1B042B43120410346546D6
:1002C00076462F06360A3E432D0AB61A9D4104D3C0
:1002D000150E1B022B4312020834654676462F0783
:1002E00036093E432D09B61A9D4104D3150F1B0153
:1002F0002B431201241D65467646AF07B6083E43E0
:10030000AD08B61A9D4104D3950F9B002B43920074
:10031000A41C65467646EF0776083E436D08B61A7C
:100320009D411AD392185B41641C16E00018764672
:1003300065464941B71A9D410191009009D3604635
:10034000B11A98418E468446009801990025401CB8
:100350006941DD0752082A435B08641EE6D57246F0
:10036000634603B0F0BDFFE700200146C046C0462B
:100370002A462346F5E700000EB5044615460E460C
:1003800012A000F046F9204600F043F915A000F055
:1003900040F9304600F03DF914A000F03AF96C46FF
:1003A0000020E0720A20A0720A3407E00A212846E1
:1003B00000F082F830310546641E2170002DF5DC16
:1003C000204600F026F900F01AF900002A2A2A2017
:1003D000617373657274696F6E206661696C6564C0
:1003E0003A2000002C2066696C6520002C206C6986
:1003F0006E652000704770477047704770477047C0
:10040000FFFFFFFFFFFFFFFFFFFFFFFFFEFFFFFFFD
:10041000F8B5042A2CD3830712D00B78491C03703B
:10042000401C521E83070BD00B78491C0370401CE4
:10043000521E830704D00B78491C0370401C521EC7
:100440008B079B0F05D0C91ADF002023DE1B08C9CC
:100450000AE0FFF7B9FEF8BD1D4608C9FD401C467D
:10046000B4402C4310C0121F042AF5D2F308C91A55
:10047000521EF0D40B78491C0370401C521EEAD463
:100480000B78491C0370401C012AE4D409780170E0
:10049000F8BDD2B210B513029A1813049A1800F0DE
:1004A000CFF810BD002203098B422CD3030A8B42E4
:1004B00011D300239C464EE003460B433CD400225C
:1004C00043088B4231D303098B421CD3030A8B426E
:1004D00001D394463FE0C3098B4201D3CB01C01A3C
:1004E000524183098B4201D38B01C01A5241430907
:1004F0008B4201D34B01C01A524103098B4201D3F5
:100500000B01C01A5241C3088B4201D3CB00C01A61
:10051000524183088B4201D38B00C01A52414308D9
:100520008B4201D34B00C01A5241411A00D20146FE
:100530005241104670475DE0CA0F00D04942031097
:1005400000D34042534000229C4603098B422DD3E6
:10055000030A8B4212D3FC22890112BA030A8B428E
:100560000CD3890192118B4208D3890192118B42DD
:1005700004D389013AD0921100E08909C3098B4262
:1005800001D3CB01C01A524183098B4201D38B01A5
:10059000C01A524143098B4201D34B01C01A524148
:1005A00003098B4201D30B01C01A5241C3088B428D
:1005B00001D3CB00C01A524183088B4201D38B0078
:1005C000C01A5241D9D243088B4201D34B00C01A02
:1005D0005241411A00D20146634652415B10104617
:1005E00001D34042002B00D54942704763465B105F
:1005F00000D3404201B50020C046C04602BD10B540
:10060000002000F03DF8FFF78DFD012000F032F8EA
:1006100010BD10B5044602E0641C00F024F82078F8
:100620000028F9D110BD01E004C0091F0429FBD244
:100630008B0701D50280801CC90700D0027070476B
:1006400000290BD0C30702D00270401C491E0229AA
:1006500004D3830702D50280801C891EE3E70022B1
:10066000EEE70022DFE708B5694608700320ABBE5D
:1006700008BD000001491820ABBEFEE726000200BD
:1006800010B500F031F800F028F810BD754600F004
:1006900043F8AE46050069465346C008C00085468B
:1006A00018B020B5FFF7BAFD60BC00274908B64670
:1006B0000026C0C5C0C5C0C5C0C5C0C5C0C5C0C571
:1006C000C0C5403D49008D46704710B50446C04640
:1006D000C0462046FFF735FD10BD10B5002801D0FB
:1006E000FFF7C8FF10BD000010B5002102A000F008
:1006F00017F8012010BD0000534947414252543AB7
:100700002041626E6F726D616C207465726D696EEE
:100710006174696F6E00000000487047C42A0020B1
:1007200070B505460C460A2000E06D1CFFF79BFFE4
:10073000002D06D028780028F7D102E0641CFFF7CE
:1007400092FF002C02D020780028F7D10A20FFF772
:100750008AFF70BD30B58C180278401C13071B0F40
:1007600001D10378401C120906D10278401C03E035
:100770000578401C0D70491C5B1EF9D101E00B701F
:10078000491C521EFBD1A142E6D3002030BDF0B57A
:1007900089B0074600F0A8FD012168468175042153
:1007A000417500218176781C079039786846C175BB
:1007B0000D2101750021C94302910391084604905F
:1007C000002168460171012141710020009002233F
:1007D000029D2846049A039902F056FA01AA0021C4
:1007E00002A800F003FE08900898072802D0E22033
:1007F00009B0F0BD03F060FA00BF282003F0FBFA57
:10080000044608202040002803D140202040002832
:10081000F3D100F069FD08202040002801D1E2203A
:10082000E6E70020E4E710B5092003F075FA092097
:1008300003F04CFA092003F095FA10BD70B50025BD
:100840000026002403F074FA03F082FA4B48007883
:10085000032803D04948007807286ED100BF01F073
:1008600005FE4519701C86B24548006B0005C00F97
:100870000028F4D031462846FFF714FEC4B2002009
:1008800001F02AFA042002F02DF964103C482030CF
:100890004078012857D13B480068007DA0424DDADE
:1008A0003748006B0007C00F002841D03448006B68
:1008B00008218843324908630846006BC004C00F12
:1008C000002815D00846836BC16B2E4880884200F3
:1008D00080184010C2171B1851412A48C088420096
:1008E00080184010C21718185141274A03C20CE063
:1008F000254801F0FDFA244803684068234A002196
:100900009A18484120490A60486002F01FFC002202
:100910001D490B684968181A91411B4A03C21A49BC
:1009200003C901F061FB1A48006800F065FF0EE0A2
:100930000021042002F054FC09E010E000210846E8
:1009400002F04EFC03E00021204602F057FC0D4867
:10095000807D002810D0012001F016FD0CE0074832
:100960000078012808D1092003F0B0F90C2003F029
:10097000D3F9B82002F067F970BD000068F0FF1FDE
:1009800050F1FF1F34F1FF1F60F0FF1FDC05000076
:100990005CF0FF1F0146881D014A10430078704734
:1009A00000000811F8B50546284600F0E6F80028D2
:1009B00001D00020F8BD284600F018F80446002CAD
:1009C00000D1F7E7E81C2721C90508430678E81C91
:1009D0000549084307783B4632462146284600F041
:1009E00003F904462046E5E700008812FEB50446F8
:1009F00020461121090608430078002816D1204618
:100A000000F042F8054620460A4908430678601C73
:100A1000094908430078019000270097324629468B
:100A20002046019B00F0B5F8054601E00348056843
:100A30002846FEBD000090110000081298F0FF1F2C
:100A4000014608462123DB0518430078002800D121
:100A50007047481C01231B0718430078002802D167
:100A60000648026807E008460830054B184303783B
:100A700004480268DA401046EAE7000098F0FF1FD9
:100A80000000901094F0FF1F014601480068704775
:100A90008CF0FF1F70B505462846FFF77BFF064622
:100AA000002E0AD0012E0DD0022E10D0032E13D10D
:100AB000284600F02FF8044610E02846FFF772FFA2
:100AC00004460BE02846FFF7BBFF044606E0284635
:100AD000FFF7DAFF044601E0002400BF00BF204614
:100AE00070BD0000014603480818034A104300681F
:100AF000C0B27047441000000000181E01460348B1
:100B00000818034A10430068C0B270474410000040
:100B10000000101870B50446A01D2521C905084322
:100B20000078002807D1201D13210906084300780A
:100B3000002800D170BD204600F019F80546201DA0
:100B40008121490508430078401CC6B23146284639
:100B5000FFF7A8FC0546601D812149050843007880
:100B60001830C6B22846704305462846E2E710B55D
:100B700004462046FFF788FF10BD0146881D252248
:100B8000D20510430078002801D0012070470020D2
:100B9000FCE7F8B50C4615461E46069F2046E84081
:100BA0000446002E1DD02B0003F008FA08050607A6
:100BB00008090A0C121800BF00BF00BF00BF00BF29
:100BC00064090DE014212046FFF76CFC044607E0A1
:100BD0000C212046FFF766FC044601E0002400BF1C
:100BE00000BF2046F8BD000030B50446002A05D0FD
:100BF0000120C003814209D9002030BD074881424D
:100C000002D30748814201D90020F6E79800054D3C
:100C100040195500405B4843EFE70000127A00009E
:100C2000979800005069000010B50446052C00D2CA
:100C300004E0054A054906A0FFF79EFB1348015D45
:100C4000134802F0F1FA10BD630200009C69000035
:100C5000696E7374616E6365203C2073697A656F99
:100C60006628706F7274476174655461626C65299F
:100C70002F73697A656F6628706F72744761746547
:100C80005461626C655B305D290000003D690000C5
:100C90000070044010B50446022C00D205E0BD22CD
:100CA0009200054905A0FFF767FB1248015D124855
:100CB00002F0BAFA10BD00009C690000696E7374FE
:100CC000616E6365203C2073697A656F6628737076
:100CD00069476174655461626C65292F73697A652F
:100CE0006F6628737069476174655461626C655BF7
:100CF000305D2900446900000070044010B50446CE
:100D0000032C00D204E0054A054906A0FFF734FB96
:100D10001248015D124802F087FA10BDB9030000C5
:100D20009C690000696E7374616E6365203C20737A
:100D3000697A656F662874706D4761746554616285
:100D40006C65292F73697A656F662874706D4761C9
:100D500074655461626C655B305D29004C6900000C
:100D60000070044070B50548FFF7C8FE441C00F051
:100D700019F805462146FFF795FB70BD0070044049
:100D800010B50446002C02D0012C06D102E0FFF77A
:100D9000E9FF04E000F006F801E0002000BF00BF1A
:100DA00010BD000070B50648FFF79CFE441C0548C6
:100DB000FFF770FE05462146FFF774FB70BD00008B
:100DC000007004400040064010B5034608E0187863
:100DD0000C78A04201D0002010BD491C5B1C521EA3
:100DE000002AF4D10120F7E704E00B780370401CDF
:100DF000491C521E002AF8D17047000070B5044605
:100E00002004000E800004490D58E6B23146284601
:100E100000F098F970BD00002469000070B5044628
:100E20002004000E800004490D58E6B231462846E1
:100E300000F024F870BD00001069000070B5044691
:100E40002004000E800004490D58E6B231462846C1
:100E500000F042F870BD00001069000070B5044653
:100E60002004000E800004490D58E6B231462846A1
:100E700000F0A0F870BD00001069000070B50546D4
:100E80000C46202C00D204E0C12204A10FA0FFF7E1
:100E900073FA0120A040A86070BD00002E5C4B5387
:100EA000444B5F312E332E305C706C6174666F7210
:100EB0006D5C68616C5C696E635C66736C5F6770C7
:100EC000696F5F68616C2E680000000070696E20B9
:100ED0003C2033320000000070B505460C46202C43
:100EE00000D205E0FF22393204A110A0FFF744FA36
:100EF0002869E040C007C00F70BD00002E5C4B5356
:100F0000444B5F312E332E305C706C6174666F72AF
:100F10006D5C68616C5C696E635C66736C5F677066
:100F2000696F5F68616C2E680000000070696E2058
:100F30003C2033320000000070B505460C461646D2
:100F4000202C00D204E02E220BA117A0FFF714FAE8
:100F5000012E07D10121A14028461430F20610438A
:100F6000016008E00120A040C1432846143001225E
:100F700092061043016070BD4B53444B5F312E33DA
:100F80002E305C706C6174666F726D5C68616C5C55
:100F90007372635C6770696F5C66736C5F677069BE
:100FA0006F5F68616C2E630070696E203C20333285
:100FB0000000000070B505460C46202C00D204E06D
:100FC000B52204A10FA0FFF7D7F90120A040686067
:100FD00070BD00002E5C4B53444B5F312E332E30DE
:100FE0005C706C6174666F726D5C68616C5C696E7C
:100FF000635C66736C5F6770696F5F68616C2E68B5
:101000000000000070696E203C20333200000000B8
:1010100000220260426041810281704770B504463F
:1010200004F0B8FA002C02D02089002803D104F083
:10103000BFFA002070BD25682089401E20812089CC
:10104000002801D1606002E000202968486028681B
:1010500020600020A86004F0ABFA2846EAE770B5EB
:1010600005462846FFF7DAFF0446002C02D020464A
:10107000103070BD2046FCE770B50546144C04F0F6
:1010800089FA1DE0E089A84214D32046FFF7C6FF85
:101090000646002E09D010360E480088401E0D4925
:1010A000088004F085FA304670BDA089A84200D2BD
:1010B00008E0A589A089002801D0103400E001E0F3
:1010C000002DDFD100BF04F073FA0020ECE7000030
:1010D00010010020ACF0FF1F10B504460348017951
:1010E000603802682046904710BD0000B0F1FF1F35
:1010F00010B5044621460248006803F0B7F810BD59
:101100000CF0FF1F10B504460348017960384268AF
:101110002046904710BD0000B0F1FF1F10B502F04F
:10112000C1FD002803D102F0E3FD002802D002F047
:1011300013FF05E002F002FE002801D0FFF77EFB5E
:1011400010BD000070B505460C46202C00D205E00D
:10115000FF22B43206A112A0FFF70EF90121090601
:10116000A0004019072292061043016070BD0000E4
:101170002E5C4B53444B5F312E332E305C706C61D0
:1011800074666F726D5C68616C5C696E635C6673DB
:101190006C5F706F72745F68616C2E680000000095
:1011A00070696E203C2033325500000070B5054652
:1011B0000C46202C00D205E0FF22A83207A113A084
:1011C000FFF7DAF8A00040190721890608430068F4
:1011D000002801D0012070BD0020FCE72E5C4B539D
:1011E000444B5F312E332E305C706C6174666F72CD
:1011F0006D5C68616C5C696E635C66736C5F706F7C
:1012000072745F68616C2E680000000070696E2067
:101210003C2033325500000070B505460C4616469A
:10122000202C00D204E0FF2205A111A0FFF7A4F8B2
:101230003102A0004019114A1043016070BD000046
:101240002E5C4B53444B5F312E332E305C706C61FF
:1012500074666F726D5C68616C5C696E635C66730A
:101260006C5F706F72745F68616C2E6800000000C4
:1012700070696E203C2033325500000000001014CD
:1012800070B505460C461646202C00D205E0FF221C
:101290007D3205A110A0FFF76FF83104A0004019BE
:1012A000104A1043016070BD2E5C4B53444B5F31BC
:1012B0002E332E305C706C6174666F726D5C686189
:1012C0006C5C696E635C66736C5F706F72745F6890
:1012D000616C2E680000000070696E203C20333283
:1012E000550000000000181810B500F079FA002829
:1012F00013D002F0E1FC02F005FD02F029FD0748E1
:1013000007490860074808490860002000F0E4FC2D
:10131000042001F0E7FB01F007F810BDFD03000019
:1013200074F0FF1FFF03000078F0FF1F10B502F0FC
:101330002FFE02F023FD00F0F5F800F0CFFE10BD07
:1013400010B504460648006B4007C00F002804D0C3
:1013500000F046FA012800D110BD0020FCE7000093
:1013600050F1FF1F014908607047000058F0FF1F4F
:10137000014607201A4A11600022194B1B689A7413
:10138000CA7B921CD3B2164A12685374144A12686C
:10139000127C08239A430832114B1B681A740822E6
:1013A0000F4B1B68DA748A7B012A08D00C4A12683A
:1013B000526992780B4B1A7001220B4B1A70084A33
:1013C0001268527C082A0ADA054A1268527C044BD9
:1013D0001B68DA74024A1268527C521ED0B27047FF
:1013E0005CF0FF1F70F0FF1F71F0FF1FF8B504469F
:1013F0000D461746072600F0F3F9002801D0F1202A
:10140000F8BDA07B00280AD12846FFF7ABFF304883
:10141000006B1021884310302D4908631EE0A07B2B
:1014200002280BD12846FFF79DFF2948006B0121B8
:10143000890288434018264908630FE00020FFF71F
:1014400091FF2348006B1021884321490863084617
:10145000006B0121890288431D49086300211C4853
:101460004030C18200202082207C1021884319490D
:10147000497D090110221140084320742046FFF7DE
:1014800077FF0646304601F0D1FA607B04280BD086
:101490000F48006B0821884308300D49086301217B
:1014A000084600F0DFF810E0204600F0A5F90848F3
:1014B000816BC06B0023DB4359405840014304D18A
:1014C00000F020FC0C2001F00DFB072098E7000045
:1014D00050F1FF1F34F1FF1F10B5044600F080F9F2
:1014E000002801D0F12010BD0D488475002C0BD0D0
:1014F000012000F049FF012000F058FF0848006873
:10150000407D0749C87508E0002000F03DFF00203D
:1015100000F04CFFB4200249C8750720E3E7000043
:1015200034F1FF1F10B50120164948751F200875BA
:101530000E2088810020C87488740D20C881002086
:101540008875B420C875104800780D300E490978A8
:101550004018D8300B4908820846807C182148433F
:101560000A4940180749086000F04CF800F042F8BA
:1015700000F00EF800F04EF80249887DFFF7ACFF4E
:1015800010BD000034F1FF1FC8670000986700001D
:1015900010B517490968488901F0E6F91449096846
:1015A000888901F053FA12490968887C01F083FAAE
:1015B0000F490968C87C01F05BFA0D490968887B0E
:1015C00001F0EEF90A490968C87B01F0B4FA08494C
:1015D0000968087C01F007FA05490968487C01F0B0
:1015E000EEFA03490968887D01F03BFA10BD00005E
:1015F00034F1FF1F10B50249087D01F07AFA10BDE1
:1016000034F1FF1F10B50249888901F082FA10BD3C
:1016100034F1FF1F10B50E48C47C807C002808D12F
:101620000C48604306216143C90844180A4824183D
:1016300009E00748807C012805D10848604361081B
:1016400044180748241800BF204601F098F910BD3F
:1016500034F1FF1FCC0C0000CD8CE1009919000083
:101660009A99E1007FB504460D4600F0B9F80028CC
:1016700002D0F12004B070BDFF2001F055FA002126
:10168000394801704470012C03D1032000F024FB81
:1016900002E0072000F020FB33482038006B0121D6
:1016A000C90288433049203908638021E82002F0CC
:1016B0006EFA092002F056FB2C48807D002802D0EB
:1016C000002000F061FE28482038006BC004C00FE5
:1016D000002808D025488088410040184010C117D4
:1016E0000191009007E02148C089002101910090FC
:1016F000684601F0EFFC1C482038816BC06B00236A
:10170000DB435940584001430CD102A800F0F0FBE4
:1017100001F00AFD0021039B029A801859410391B0
:10172000029005E010482038C16B806B0391029055
:1017300069460EC90398591850410291039002A8B6
:1017400000F08CFC08482038816BC06B0023DB4321
:1017500059405840014304D100F0D4FA102001F060
:10176000C1F9072086E7000070F1FF1F34F1FF1F69
:1017700070B505460C4600F033F8002801D0F12082
:1017800070BD1349C87D01F0CFF92046FFF7EAFD8F
:10179000012000F0A1FA8021882002F0F8F9012050
:1017A00001F044F90B480C490860092002F0DAFA0C
:1017B0000A48816BC06B0023DB435940584001430A
:1017C00004D100F09FFA102001F08CF90720D7E730
:1017D00034F1FF1F8D1C000074F0FF1F50F1FF1F3C
:1017E00010B503F0D7FE0348047803F0E1FE20466D
:1017F00010BD000068F0FF1F10B50446207C02F009
:1018000072FB607C02F068FB607C801E607402F0FA
:10181000D5F9022000F060FA0648074908608021E7
:101820000A2002F0B4F9092002F050FA0A2002F06E
:1018300073FA10BD7921000078F0FF1F7CB54B488A
:101840000068067B49480068C07B801BC1B24748DE
:101850000068C17345480068C07B00280CD1042093
:1018600001F040F902F04EFA00F056FA002000F0C4
:1018700033FA3F483F4908603C480068017B6846AE
:1018800002F08CFA002448E038480068807BC006EB
:10189000C00F002809D06846005D34490968C97A3C
:1018A000354A515C48406946085569460A5D2F49EA
:1018B0000968C87A411C2D4B1B68D9722F490A54FC
:1018C0002A480068C57A29480068007A401EA84264
:1018D00003DD6946085D00F035FD2948006B000610
:1018E000C00F002818D1022D04D020480068807A4B
:1018F000A84211D100F018FF2148006B8004C00FEE
:10190000002809D01E48006B0121490388431C4967
:10191000086302F0E7F97CBD641C14480068007B92
:10192000A042B1D802F0DEF910480068C07B002860
:1019300017D00E480068C07B0A2804DB05200B493D
:101940000968087305E009480068C07B0749096811
:10195000087306490968097B491EC8B201F066F898
:1019600001E000F05DF800BFD5E7000058F0FF1F70
:10197000FD03000074F0FF1F08680000B8F1FF1FAE
:1019800050F1FF1F10B500F0C7F901212148006890
:101990000E3002F003FA02F029FA1E490968C873F2
:1019A00002F0A0F91B480068C07B1A490968087258
:1019B00018480068007AFE2804DC16480068007A9F
:1019C000052802DA00F0A8FF10BD1348134908608B
:1019D00010480068C07B052804DB05200D49096814
:1019E000087305E00B480068C07B0A490968087362
:1019F00008490968097B491EC8B201F017F8054972
:101A00000968097AC9000846643001F01CF900BF72
:101A1000DAE7000058F0FF1F3D18000074F0FF1FC8
:101A2000F0B585B000208949087600F07DFC884833
:101A30000068C07A801E8749095C8748807D8142A2
:101A40000AD183480068C07A401E8249095C8248F6
:101A5000C08A0012814203D000F05EFF05B0F0BDE5
:101A60007E48007802281DD100207D4908707D48FD
:101A70000078302108400011022803D1002001F035
:101A8000A7FBEBE77848007810210840002804D035
:101A90000121002001F072FBD5E00021084601F091
:101AA0006DFBD0E06D480078032871D16E48007856
:101AB00008210840002810D065480068807A6549F0
:101AC000085C18210840C71061480068807A67499F
:101AD000C95D40185E49096888725D480068807A6F
:101AE0005C49085C042853D15F48007840210840D5
:101AF000002810D05E480078C01C564A81185D4806
:101B0000027802A8FFF770F902225249C91C01A805
:101B1000FFF76AF913E057480078821E54480078AE
:101B2000401D4C4BC11802A8FFF75EF950480078E1
:101B3000C01C484A8118022201A8FFF755F96846DF
:101B400080884C4900900978082901DA012100E0D9
:101B500000210846039B029A00F0FCFC0546002485
:101B600011E061003C48801C405AA8420AD13A4822
:101B700000880121A1400840002803D001203349FA
:101B8000087604E0641C3C4800788442E9D300BF36
:101B90003548007820210840002848D02E48403899
:101BA000006B8005C00F002841D12B484038006BE6
:101BB000C004C00F00283AD100F09AF82348007EF4
:101BC0000001022108432D49087000204870214877
:101BD0008078887020484038006B2021884320306E
:101BE0001D4940390863264800F074F91748807C85
:101BF0002449085C0021224B0CCB80185941204A13
:101C000003C200200223C8221D49009003C901F02D
:101C10003BF8114A243A111D1B48FFF7E7FB064623
:101C2000072E10D000F06EF800F062F80BE00020F4
:101C300001F0CEFA0A480078002804D000200849B4
:101C4000087001F0E9FA00BF08E7000034F1FF1F57
:101C500058F0FF1FB8F1FF1F90F1FF1F6DF0FF1F3D
:101C600071F0FF1F6FF0FF1F6EF0FF1F0468000090
:101C70006BF0FF1F6CF0FF1F966700001CF0FF1F4A
:101C800060F0FF1FC8670000B8F2FF1F10B500F03A
:101C900043F802F011F80C48006800F029F900F050
:101CA000E5FB0949096848720848094908600020AD
:101CB00005490968C87200210648C1820120C00296
:101CC00000F0C1FF10BD000058F0FF1F8519000093
:101CD00074F0FF1F90F1FF1F10B5044603F05AFC8B
:101CE0000248047003F064FC10BD000068F0FF1FA0
:101CF00010B503490868012101F066FD10BD000020
:101D00008069000010B503490868002101F05CFDFE
:101D100010BD00008069000010B503490868032168
:101D200001F052FD10BD00008069000010B50349AC
:101D30000868022101F048FD10BD00008069000024
:101D40001CB5684600F0D4F8064908684968019B4C
:101D5000009A101A8B4103D3FFF7DEFF00F046F81C
:101D60001CBD000038F0FF1F1CB5684600F0C0F82D
:101D7000064908684968019B009A101A8B4103D3F1
:101D8000FFF7B6FF00F048F81CBD000028F0FF1F69
:101D90001CB5684600F0ACF8064908684968019B24
:101DA000009A101A8B4103D3FFF7ACFF00F068F8DC
:101DB0001CBD000040F0FF1F1CB5684600F098F8FD
:101DC000064908684968019B009A101A8B4103D3A1
:101DD000FFF7ACFF00F072F81CBD000030F0FF1FF1
:101DE000014908684968704728F0FF1F10B5084886
:101DF0000078012802D100F09DFD07E00548006B46
:101E00000121C902884340180249086310BD00003F
:101E100068F0FF1F50F1FF1F10B5042000F062FEB4
:101E200011480078012809D0022817D10F4810491D
:101E3000086001F041FF01F065FF0FE00D480E4919
:101E4000086001F039FF01F05DFF01F081FF002023
:101E500001F0E2F900200949087000BF00BF00202E
:101E6000FFF73AFF10BD000068F0FF1FFF030000FE
:101E700078F0FF1FFD03000074F0FF1F71F0FF1FDB
:101E800010B50D48007801280FD0022804D003288F
:101E900006D007280DD104E00C2000F023FE09E055
:101EA00000BF102000F01EFE04E0102000F01AFE1B
:101EB00000E000BF00BF10BD68F0FF1F10B5044870
:101EC0000068002802D002480068804710BD00006A
:101ED00020F0FF1F10B50446002C00D110BD204695
:101EE00000F006F8204601F0D3F800BFF6E7000046
:101EF00070B50446002C00D170BD03F04BFB1849AF
:101F0000086801F025FD05461549086801F02AFD1D
:101F1000002815D013480268406801231B040021E3
:101F2000D2184841226060600D49086801F010FD38
:101F3000002123686268C0185141616020600BE095
:101F4000084801684068216060600021226860687C
:101F5000521948412260606003F02AFB00BFCBE7C2
:101F60008069000048F0FF1F7CB50446002C00D1BA
:101F70007CBDFFF7BDFE1A4A2168606811605060A1
:101F800003F008FB6846FFF7B3FF1649086801F045
:101F9000DFFC054603F00CFB114908684968019B0A
:101FA000009A101A8B4117D20D480088694609889B
:101FB000401A401985B20B492A460868012101F0F0
:101FC0003BFD08490868012101F0BEFB054908688E
:101FD000012101F039FC01E0FFF71EFF00BFC7E758
:101FE00028F0FF1F806900007CB504460D461948A3
:101FF0000460456003F0CEFA6846FFF779FF1649A2
:10200000086801F0A5FC064603F0D2FA11490868F9
:102010004968019B009A101A8B4117D20D4800881D
:1020200069460988401A801986B20B493246086809
:10203000002101F001FD08490868002101F084FB3E
:1020400005490868002101F0FFFB01E0FFF718FFD8
:102050007CBD000040F0FF1F806900007CB5044695
:10206000002C00D17CBDFFF757FE1A4A216860683A
:102070001160506003F08EFA6846FFF739FF164989
:10208000086801F065FC054603F092FA11490868FA
:102090004968019B009A101A8B4117D20D4800889D
:1020A00069460988401A401985B20B492A460868D2
:1020B000032101F0C1FC08490868032101F044FB39
:1020C00005490868032101F0BFFB01E0FFF78EFE20
:1020D00000BFC7E738F0FF1F806900001CB5234828
:1020E0000024045700200090019021480078002827
:1020F0003AD101201E4908706946002001F08EFA8D
:102100001C4A042110688A0602438B041A4311609A
:1021100000BF0121204601F06BFF164908684022EC
:102120009105014303231B0619430A6000BF1149AF
:1021300010220868002101F0C1FC0E491022086835
:10214000012101F0BBFC0B4910220868022101F0BB
:10215000B5FC084910220868032101F0AFFC0549CD
:102160000868012101F0EEFC1CBD00008C69000034
:1021700054F0FF1F8069000010B507480068407CDC
:10218000002802DD01F01AFD04E00448044908605B
:1021900001F0B8FD10BD00005CF0FF1FA52100009C
:1021A00078F0FF1F08B501F087FD584858490860CE
:1021B0000020FFF791FD042000F094FC5548006BCF
:1021C000C006C00F002805D15248006B4005C00F63
:1021D00000287DD0FFF78CFD4E48006BC004C00F77
:1021E000002836D04C48FFF783FE4C480089410058
:1021F00040184010C117484A13685268C01851412E
:10220000454A03C2444801684068424A9163D0632A
:1022100000F08AFF014600233F4802684068511AD7
:1022200098413D4A11605060114603C9FFF7DCFE3A
:102230003848836BC16B3948408942008018401090
:10224000C21718185141344A03C23348FFF78CFEB5
:102250002AE03148FFF73EFE3048807C3049085C78
:10226000C01EC1172C4B0CCB801859412A4A03C2FF
:102270002848006BC006C00F002809D0002000903D
:102280002648028A0123244903C900F0FDFC0BE023
:10229000002000902148008A0246FF32913201233B
:1022A0001D4903C900F0F0FC1A4920310D20FFF749
:1022B0005FFA1848006B10218843164908630846E6
:1022C000006B012189028843124908631DE0FFE782
:1022D0001048006B8006C00F002812D00D48006B1C
:1022E000202188430B490863002000F071FF0D484E
:1022F0000078002809D000200A49087000F08CFFFF
:1023000003E00021084600F039FF08BDFF0300008C
:1023100078F0FF1F50F1FF1F60F0FF1F34F1FF1F27
:10232000C867000071F0FF1F10B502E0002001F047
:1023300062FD282001F05FFD402108400028F5D112
:1023400010BD00000E49C98A41400D4AD1820021CA
:1023500013E00B4A927DD207D20F002A07D0084A19
:10236000D28A5210074B5A40054BDA8204E0044AE5
:10237000D28A5310024AD382491C0829E9D37047F4
:1023800090F1FF1F0884000070B504461E2001F084
:1023900032FD0546FB200540002C02D0A00028435A
:1023A000C5B229461E2001F0BCFD70BD10B5044623
:1023B0006007010E0B2001F0B4FD002C04D0202199
:1023C0006F2001F0AEFD03E030216F2001F0A9FD88
:1023D00010BD000008B51748006BC007C00F0028EB
:1023E00021D01448006B8005C00F00281BD1114874
:1023F000006BC004C00F002815D10E48006B0421EB
:102400008843001D0B490863002001230F22120599
:102410000090401E014600F037FC064920310D2097
:10242000FFF7A6F905E00348006B04218843014942
:10243000086308BD50F1FF1F0B490968097D8142FF
:1024400001DC00200EE008490968097D403981421D
:1024500001DBFF2006E004490968097D091AC8B2BA
:102460008106080E7047000034F1FF1F10B50024EC
:10247000242001F0C0FC0446204610BDF8B50446F7
:102480000727E069002801D10520F8BD0020009051
:10249000607D042801D0032000E002200346A568E7
:1024A00028462269E16800F0EFFB074A111D20462B
:1024B0000830FEF79BFF0746072F03D0FFF722FCEB
:1024C000FFF716FC3846E0E76CF1FF1F38B505460C
:1024D0000724002000900748C2890123981E014666
:1024E00000F0D2FB01210846FFF7BCF80446204665
:1024F00038BD000034F1FF1F7CB504460725144A9F
:10250000A168E0689163D0630023DB43A168594070
:10251000E0685840014313D0E168A0680191009041
:10252000684600F0D7FD00F0FFFD0022009B0199F6
:10253000181A91410191009001990098FFF754FDFC
:1025400001210020FFF78EF8054628467CBD0000DB
:1025500050F1FF1F70B50146049C002902D0A51858
:10256000A8B20BE0A518A8B21E04150C35432D180F
:10257000A8B21D18A8B21D0C2D18A8B270BD00007D
:1025800010B5FEF7D3FE03200C49C873042048732E
:102590000D2008730120887309484861002001F06C
:1025A00031FE0849086000F05FFD00221146064830
:1025B00002F00CF90549086010BD0000B8F2FF1FD9
:1025C0001CF0FF1F0CF0FF1FF12D000000F0FF1F9B
:1025D00010B5032443480078052800D110BD4248B7
:1025E0000078302108400011022806D13E480078CA
:1025F000C007C00F002800D002243C48007E3C49A0
:10260000095D884207D1394818304178384A601C42
:10261000105C81420BD03648005DFF2804D134495C
:10262000601C085CFF2802D000F076F9D6E731483C
:10263000007800281BD12B48007800284FD02B4869
:102640004038006B4006C00F00280DD02748007EA0
:102650002749095D884207D1244818304178244A27
:10266000601C105C81423AD000F056F9B6E7214870
:102670000078042826D11D48817E1D4AA01C105CCC
:10268000814206D119481A304178E01C105C814221
:1026900025D01749A01C085CFF2803D1E01C085C6A
:1026A000FF2802D000F038F998E71348007820217D
:1026B0000840002813D00B48007805280FD000F000
:1026C0002BF98BE70A4AA01C1118082207481C3076
:1026D000FEF77AFB002802D100F01EF97EE700BF6A
:1026E0007CE700006DF0FF1F6FF0FF1F90F1FF1FF0
:1026F000B8F1FF1F6BF0FF1F6EF0FF1F0849087055
:102700005A2801DB002008E01A2801DCFF2004E041
:102710005A21091AC8B28106080E0249087070478A
:102720006AF0FF1F69F0FF1FF8B571480068C77AAB
:10273000022F72D16F4800786F4908700846007800
:102740004007400F6D4908700846007805281DD1E4
:102750006948007808210840002814D166480078AC
:10276000302108400011022802D000F0D5F8F8BD51
:1027700004206349087000206249087006205C4903
:1027800009688872B2E000F0C7F8F0E7594840786D
:102790005D4908705948007800280ED057480078E5
:1027A00001280AD055480078022806D053480078FE
:1027B000032802D000F0B0F8D9E75048007802288A
:1027C00012D1514800782021084000280CD14848F7
:1027D0000068007A052802D000F09EF8C7E70320C1
:1027E000434909688872C2E74348007808210840D5
:1027F000002808D04448007830210840002802D141
:1028000000F08AF8B3E74048007830210840001112
:10281000302803D100F080F8A9E74BE0354846782E
:102820000C210E404078851134462C433748005D1A
:102830000007000F324908703448005D001131492B
:1028400008702F480078002806D108460078002834
:1028500002D100F061F88AE72948007800280CD0FE
:1028600028480078002808D12348007840210840F3
:10287000002802D000F050F879E7214800780028BD
:102880000ED02048007800280AD01B48007840214C
:102890000840002804D01B480078801E19490870A1
:1028A00017480078C01C1749097840181049096872
:1028B00088721BE00E480068807AB84216D10F4833
:1028C000007802280CD112480078002805D0094869
:1028D000807810490978884208D000F01DF846E752
:1028E00007480078002801D0FFF772FE00BF3EE7DE
:1028F00058F0FF1FB8F1FF1F6EF0FF1F6DF0FF1FB4
:102900006BF0FF1F6CF0FF1F6FF0FF1FF4670000FC
:1029100071F0FF1F70F0FF1F10B50548006B01211B
:102920004903884340180249086300F003F810BDCA
:1029300050F1FF1F10B5FEF7D7FC0A48006B4007A7
:10294000C00F002803D0002000F010FC09E0002197
:10295000C943044A9163D163114620310D20FEF72B
:1029600007FF10BD50F1FF1F10B5044621120320D0
:1029700001F0D7FAE1B2042001F0D3FA10BD10B58E
:1029800004462002010E072001F0CBFA2004010EBC
:10299000082001F0C6FAE1B2092001F0C2FA10BD28
:1029A00070B50446002C0FD0202C0DD0402C0BD03D
:1029B000602C09D0802C07D0A02C05D0C02C03D0CF
:1029C000E02C01D0052070BD192001F014FA054655
:1029D000ED06ED0E2846204305462946192001F054
:1029E000A0FA0720EFE770B50446002C0FD0202C8A
:1029F0000DD0402C0BD0602C09D0802C07D0A02CFF
:102A000005D0C02C03D0E02C01D0052070BD1A20C9
:102A100001F0F1F90546ED06ED0E28462043054686
:102A200029461A2001F07DFA0720EFE770B5054628
:102A30003C2001F0E0F90446802004402046284371
:102A4000044621463C2001F06CFA70BD10B50446E6
:102A50002112052001F065FAE1B2062001F061FAC9
:102A600010BD10B504462146712001F05AFA10BD80
:102A700070B50546022001F0BEF90446182020403A
:102A8000C010002803D1032D01DD052070BD1820E2
:102A90002040C010082803D1022D01DD0520F5E7F4
:102AA000FC2004402046284304462146022001F031
:102AB00038FA0720EAE770B50446002C03D0082C4A
:102AC00001D0052070BD022001F095F90546E720F0
:102AD00005402846204305462946022001F021FAF8
:102AE0000720EFE710B504462146012001F019FA4E
:102AF00010BD70B50546112001F07DF90446E020B7
:102B000004402046284304462146112001F009FADA
:102B100070BD10B5044621122C2001F002FAE1B27A
:102B20002D2001F0FEF910BD10B5044621462920E4
:102B300001F0F7F910BD70B50446172C30D00F2CFA
:102B40002ED0072C2CD0162C2AD00E2C28D0062CB8
:102B500026D0152C24D00D2C22D0052C20D0142CBE
:102B60001ED00C2C1CD0042C1AD0132C18D017D02B
:102B70000B2C15D0032C13D0122C11D00A2C0FD0F3
:102B8000022C0DD0112C0BD0092C09D0012C07D010
:102B9000102C05D0082C03D0002C01D0052070BDCE
:102BA000192001F028F90546E02005402846204379
:102BB00005462946192001F0B4F90720EFE770B562
:102BC0000446172C30D00F2C2ED0072C2CD0162CCE
:102BD0002AD00E2C28D0062C26D0152C24D00D2C33
:102BE00022D0052C20D0142C1ED00C2C1CD0042C50
:102BF0001AD0132C18D017D00B2C15D0032C13D0AF
:102C0000122C11D00A2C0FD0022C0DD0112C0BD06D
:102C1000092C09D0012C07D0102C05D0082C03D08A
:102C2000002C01D0052070BD1A2001F0E4F8054603
:102C3000E020054028462043054629461A2001F099
:102C400070F90720EFE71FB50446002000940190BB
:102C5000684600F03FFA02A8FFF74AF9009B029A83
:102C600001990398D21848410292039002A8FFF7F5
:102C7000F5F9FFF7B5F8029B039AC01A914102D209
:102C800002A8FFF771F91FBDF0B51FB48AB0144652
:102C90001D4600200094019002F07CFC0020C043FF
:102CA00001460A9B58400B9A5140084308D14F4AAD
:102CB0000A990B989163D06302A8FFF70BF93AE0E9
:102CC0004A48006BC004C00F002816D00321002022
:102CD0000B9F0A9E0591049030463946049B059A45
:102CE000FDF7B0FACA074008104349080B910A9053
:102CF0000B990A980391029006E00B990A980391A8
:102D000002900AA800F0E6F9384A0B990A98D163B4
:102D10009063022D02D100F019FA01E000F004FAEC
:102D2000C2170A9B0B99181A91410B910A900B99A3
:102D30000A98FFF759F92D48006BC004C00F00280E
:102D400024D0012D16D10323002201990098079366
:102D50000692089109901A46069BFDF773FACA0776
:102D6000400810434908039B029A80185941039177
:102D7000029015E0684600F0ADF9009B019A0299B7
:102D80000398C91850410291039009E00021029A6A
:102D90000398121948410292039002A800F09AF990
:102DA0004B22D2000021029B03989A1848410292BC
:102DB0000390491E08460A9B59400B9A5040014314
:102DC0000DD1022D02D100F0C1F901E000F0ACF903
:102DD000C117039B029A801859410391029002A8DF
:102DE000FFF7C2F802F0E4FB0FB0F0BD50F1FF1F97
:102DF0001CB5072724E102219248006802F0B4FDC7
:102E00000023DB430022190A8E48006801F05CFAB7
:102E10008D490860084600680602360A02203040E4
:102E2000002829D08949097A0846183002F0AEF9FD
:102E30000446002C1FD0022020708449497A481093
:102E4000FFF75CFC2074814800F022F97F482038AD
:102E5000016A406AA160E0607C48007A801E60746C
:102E6000204618306061627C79496069FDF7BCFFDB
:102E70002046FEF731F900BFF007C00F002817D039
:102E8000032002F083F90446002C10D001202070AA
:102E90006E482038006B8007C00F002802D0152034
:102EA000207201E0072020722046FEF715F900BFCE
:102EB0000420304000280ED00520FEF7DDF804463F
:102EC000002C07D00720207060480078A0702046B2
:102ED000FEF718F900BF08203040002814D0052064
:102EE000FEF7CAF80446002C0DD0092020700720F8
:102EF000A0705648017821712079FFF79DFAE070A3
:102F00002046FEF7FFF800BF1020304000280BD00D
:102F10000520FEF7B1F80446002C04D010202070E4
:102F20002046FEF7EFF800BF63E00020FEF708FA46
:102F3000002802D0FEF7D8F904E0FEF751FC002883
:102F400000D05BE041482038006B042188433F49B2
:102F50002039086308460C30FEF781F80546697889
:102F60003A48403001712878002804D0062807D05C
:102F700008280FD109E02846FFF780FA07460BE042
:102F80002846FFF7A3FA074606E02846FFF7B4FAFB
:102F9000074601E0F22700BF00BF072F28D0052019
:102FA000FEF76AF80446002C21D02878002804D0C7
:102FB000062806D008280CD107E0012020702772CF
:102FC0000AE007202070A77006E009202070A77093
:102FD00002E01020207000BF00BF2878002803D135
:102FE0002046FEF779F802E02046FEF78BF800E075
:102FF00004E016482038C068002896D100BFFEF7CC
:10300000EFFB002801D1FFF7E5F900220121102094
:1030100001F05EFA0F4908600FA103C90191009009
:1030200000231A4669460B48006801F013FA684607
:10303000FDF7ADFB0A490B48006802F02BF900BF11
:10304000D9E600000CF0FF1F14F0FF1F70F1FF1F06
:10305000B8F1FF1F84F0FF1F313233343500000018
:10306000FFFFFF0000F0FF1F10B5002007490863B5
:10307000002106480C30FDF7CBFF0020FEF772F967
:10308000002102484030018010BD000050F1FF1FB8
:1030900070B506460E48807C002802D0012814D165
:1030A00009E01E220023346820467168FDF7E2F82B
:1030B000716030600AE00A2200233468204671689B
:1030C000FDF7D8F87160306000E000BF00BF70BD50
:1030D00034F1FF1FF8B504461248807C002802D066
:1030E00001281CD10DE01E2700206668256800908D
:1030F000284631463A46009BFDF7A4F861602060FF
:103100000EE00A27002066682568009028463146B0
:103110003A46009BFDF796F86160206000E000BF32
:1031200000BFF8BD34F1FF1F0748807C002802D0A3
:10313000012806D102E0A72080007047FF20293037
:10314000FBE70020F9E7000034F1FF1F0648807C10
:10315000002802D0012804D101E0DC207047DC20E7
:10316000FCE70020FAE7000034F1FF1F10B5044629
:1031700001204002FDF7BCFF10BD000038B5054638
:103180000C46FEF7B5FD1148006B02218843610033
:103190000222114008430D4908630120FDF7A8FFF2
:1031A000002C11D00948806900280DD00020009023
:1031B000064801238269981E0146FFF765FD034911
:1031C00020310D20FEF7D4FA38BD000050F1FF1F6A
:1031D00010B50446FEF78CFD0220FDF789FF10BDF7
:1031E00070B504460D46FEF783FD034804700420C5
:1031F000FDF77EFF70BD000070F1FF1F70B5044643
:103200000D46FEF775FD034804700820FDF770FFBA
:1032100070BD000070F1FF1F10B50446FEF764F8A2
:103220001020FDF765FF10BD10B5CA06D20E0123B0
:1032300093404A09D21E9200054C04191219012428
:1032400024072243CC0624092243136010BD00004A
:10325000341000004022C11C13231B0619430A70BE
:1032600070470421C170002181704170417101716A
:1032700070470146087880221040C0097047014617
:1032800088797047F7B586B0079800900020C04352
:103290000190072005900820049004988201059869
:1032A000401C424311460898FDF7FCF802900025A7
:1032B00021E002200390002617E0681C039A504387
:1032C00001460898FDF7EEF804460099A14208D39C
:1032D0000098071B0198B84203D9019705950496F9
:1032E0000294039840000390761C082E02D801989F
:1032F0000028E2D16D1C072D02D801980028D8D1F2
:1033000004980007000F0599090170221140084335
:1033100006994870029809B0F0BD10B50A07130E5F
:10332000C21C092464062243137010BD30B500BFCF
:10333000047820252C406409002CF9D0012902D101
:10334000C271837100E0837100BF047820252C4096
:103350006409002CF9D030BD7047000010B5024858
:10336000006902F0E7FB10BD00E000E070B54F48D7
:103370000078C0210840002868D14C48407940219D
:10338000084000284ED14948007804210840002810
:1033900015D1474C4548007838210840C108012024
:1033A0008840C5B229462046FDF77CF804463F48D0
:1033B000407830210840002803D0640901E001244E
:1033C000E4033A48C078E0210840C106C90E00294C
:1033D00026D14011030000F0F1FD0805090D11157B
:1033E000191D20230520C00144431AE005200002D6
:1033F000444316E00F20C001444312E00520400280
:1034000044430EE0B720800044430AE0B720C000E8
:10341000444306E02748444303E02748444300E090
:1034200000BF38E021480079C006C00E451C29467F
:103430001F48FDF737F804461C484079C006C00E07
:103440000546183520466843044624E017480078AE
:10345000C0210840402815D114484078C007C00F4B
:10346000002802D10124E40315E01048007A0E225E
:10347000104042080120904001461048FDF712F824
:10348000044608E009480078C0210840802801D19E
:10349000074C00E070BD0A484068000F411C204600
:1034A000FDF700F80749086000BFF3E70040064059
:1034B00000127A0095080000710B000000093D0021
:1034C00040800440C4F0FF1F00201749086001201D
:1034D00040041549C0394860062014490870084660
:1034E000407840210840114948700846C07880065D
:1034F000800E202108430D49C87080200C490870B7
:1035000000200A490871487100BF084880791021DD
:1035100008400028F9D000BF044880790C210840F9
:103520000028F9D1704700000081044000400640A7
:103530000050064010B53749086800F013FA00281B
:1035400013D0344908688022510501430723DB0565
:1035500019430A6000BF30480368406852020021E6
:103560009A1848412C490A6048602A490868002195
:1035700000F004FA00280DD026490868002100F068
:10358000A3F9002806D023490868002100F0DCF8E0
:10359000FEF7FEFB1F490868012100F0EFF9002843
:1035A0000DD01C490868012100F08EF9002806D0D2
:1035B00018490868012100F0C7F8FEF7D5FB154946
:1035C0000868022100F0DAF900280DD011490868D6
:1035D000022100F079F9002806D00E49086802217E
:1035E00000F0B2F8FEF7E8FB0A490868032100F092
:1035F000C5F900280DD007490868032100F064F9D7
:10360000002806D003490868032100F09DF8FEF762
:1036100097FB10BD8069000048F0FF1FF8B5064613
:103620000D46032E00D204E03C222CA139A0FCF769
:10363000A3FEB0003F490C583046FDF75FFB314612
:10364000204600F0DFF9A8780204214684310323E4
:10365000DB0619430A6000BFE87842042146843142
:103660003123DB0519430A6000BF28798204214613
:10367000843119231B0619430A6000BF68790206CA
:10368000214684312C4B19430A6000BF68784202FE
:10369000214684312923DB0519430A6000BF2046F7
:1036A0002978002901D0032200E00022930102467C
:1036B0008432224F3A43136000BF214988570028C3
:1036C00005DBC206D20E012191401E4A116000BFE7
:1036D0001B49885700F080FC0020F8BD4B53444B39
:1036E0005F312E332E305C706C6174666F726D5C6E
:1036F000647269766572735C7372635C74706D5C1E
:1037000066736C5F74706D5F6472697665722E6348
:1037100000000000696E7374616E6365203C205484
:10372000504D5F494E5354414E43455F434F554EB4
:1037300054000000806900000000181C00000813FD
:103740008C69000080E200E070B505460C46062C4E
:1037500000DA05E0FF22B73206A111A0FCF70CFE4B
:103760008021E20028460C3010182722D205104391
:10377000016070BD2E5C4B53444B5F312E332E30B5
:103780005C706C6174666F726D5C68616C5C696EB4
:10379000635C66736C5F74706D5F68616C2E68004B
:1037A0006368616E6E656C203C2046534C5F4645F5
:1037B00041545552455F54504D5F4348414E4E452C
:1037C0004C5F434F554E540070B505460C46062CD1
:1037D00000DA05E0FF22943206A111A0FCF7CCFD2F
:1037E0000021E20028460C30101813221206104364
:1037F000016070BD2E5C4B53444B5F312E332E3035
:103800005C706C6174666F726D5C68616C5C696E33
:10381000635C66736C5F74706D5F68616C2E6800CA
:103820006368616E6E656C203C2046534C5F464574
:1038300041545552455F54504D5F4348414E4E45AB
:103840004C5F434F554E540070B505460C46062C50
:1038500000DA05E0FF22893206A111A0FCF78CFDF9
:103860004021E20028460C301018132212061043A3
:10387000016070BD2E5C4B53444B5F312E332E30B4
:103880005C706C6174666F726D5C68616C5C696EB3
:10389000635C66736C5F74706D5F68616C2E68004A
:1038A0006368616E6E656C203C2046534C5F4645F4
:1038B00041545552455F54504D5F4348414E4E452B
:1038C0004C5F434F554E540070B505460C46062CD0
:1038D00000DA05E0FF22AC3208A113A0FCF74CFD92
:1038E000E10028460C3008182721C9050843006864
:1038F000002801D0012070BD0020FCE72E5C4B5356
:10390000444B5F312E332E305C706C6174666F7285
:103910006D5C68616C5C696E635C66736C5F74702F
:103920006D5F68616C2E68006368616E6E656C2007
:103930003C2046534C5F464541545552455F5450D8
:103940004D5F4348414E4E454C5F434F554E5400EA
:103950000146081D024A1043006880B2704700000B
:1039600000007810014608462722D205104300685F
:10397000002801D0012070470020FCE770B5054603
:103980000C46062C00DA05E0FF22A03208A113A0A5
:10399000FCF7F2FCE10028460C3008181321090658
:1039A00008430068002801D0012070BD0020FCE71A
:1039B0002E5C4B53444B5F312E332E305C706C6168
:1039C00074666F726D5C68616C5C696E635C667373
:1039D0006C5F74706D5F68616C2E68006368616E07
:1039E0006E656C203C2046534C5F46454154555211
:1039F000455F54504D5F4348414E4E454C5F434FE9
:103A0000554E540070B50A4694000A4D2B5D0024B3
:103A10000460002105E00025CE0004460C34A551C9
:103A2000491C9942F7DBFF240434046500258424F3
:103A3000255070BD9069000070B505460C461646CD
:103A4000062C00DA05E0FF22C43206A110A0FCF724
:103A500093FCE10028460C300818001D1649084365
:103A6000066070BD2E5C4B53444B5F312E332E30BD
:103A70005C706C6174666F726D5C68616C5C696EC1
:103A8000635C66736C5F74706D5F68616C2E680058
:103A90006368616E6E656C203C2046534C5F464502
:103AA00041545552455F54504D5F4348414E4E4539
:103AB0004C5F434F554E54000000781070B50546DA
:103AC0000C461646062C00DA05E0FF22623208A1F9
:103AD00012A0FCF751FCE10028460C304058402170
:103AE00008400643E10028460C30465070BD0000F7
:103AF0002E5C4B53444B5F312E332E305C706C6127
:103B000074666F726D5C68616C5C696E635C667331
:103B10006C5F74706D5F68616C2E68006368616EC5
:103B20006E656C203C2046534C5F464541545552CF
:103B3000455F54504D5F4348414E4E454C5F434FA7
:103B4000554E540010B5CB00012212070243312418
:103B5000E40422431360002909D100BF01221207A7
:103B600002433123DB041A431268002AF6D110BD48
:103B700070B50446262000F03EF90546F8200540C1
:103B8000284620430146262000F0CBF970BD70B5D1
:103B900005460E462946252000F0C3F9262000F0F0
:103BA0002AF904466407640F3046F02108400443B4
:103BB0002146262000F0B5F970BD0000FEB5314861
:103BC0000068C67C2F480068877C2E4800684069E2
:103BD000C5192C480068407C082802DC2948006888
:103BE000467C002419E02878FEF7ACFB2648407D8F
:103BF00001280DD123490968887C411C214A12689B
:103C000091742249095C2A7851406A46115502E0B4
:103C10002878694608556D1C641CB442E3D33146CC
:103C2000684600F031F917480068407C801BC1B23B
:103C300014480068417413480068407C00281FD174
:103C4000134D002416E01048407D01280DD10D4988
:103C50000968887C411C0B4A126891740B49095C05
:103C60002A7851406A46115502E02878694608557D
:103C70006D1C641C022CE6D30221684600F004F996
:103C8000FEBD00005CF0FF1F34F1FF1F086800005C
:103C9000A6F1FF1F10B50248FDF7B0F810BD0000F7
:103CA0000302000010B5034988680321FDF77EFA7E
:103CB00010BD00002469000010B503490022886887
:103CC0000321FDF7DDFA10BD2469000010B504469C
:103CD0000349224688680321FDF7D2FA10BD00008F
:103CE0002469000010B581208000FDF787F810BD21
:103CF00010B5034988680421FDF758FA10BD00008B
:103D00002469000010B50349002288680421FDF7EA
:103D1000B7FA10BD2469000010B5044603492246D5
:103D200088680421FDF7ACFA10BD0000246900008A
:103D300010B51320FDF762F810BD000010B503495F
:103D400008681321FDF732FA10BD00002469000055
:103D500010B50349002208681321FDF791FA10BD40
:103D60002469000010B5044603492246086813215F
:103D7000FDF786FA10BD00002469000010B500248C
:103D800007E0054B621C995C1A46105D00F0C9F80B
:103D9000A41C522CF5D310BD4467000038B504466E
:103DA0000D4600200090002C00D138BD01F0F2FB40
:103DB000002001F091FA03200002FDF72FF8012303
:103DC00000226946104601F0DBFA2B46224600210C
:103DD000084601F0D5FA03200002FDF73FF8002065
:103DE00001F088FA01F0E4FB00BFDEE710B5002027
:103DF00000F001F810BD1CB50446019401F0CAFBA7
:103E000003200002FDF70AF80123002201A9104651
:103E100001F0B6FA01236A460021084601F0B0FA23
:103E200003200002FDF71AF801F0C2FB6846007893
:103E30001CBD000008B5282000901148FDF70EF8C1
:103E400000BF68460088401E81B200910029F8D169
:103E50000C4800900A48FCF7E1FF09E0684600883A
:103E6000401E81B2009168460088002800D108BD3C
:103E70001220FCF7E3FF0028F0D00120F7E7000054
:103E80001E040000A406000038B504460D460120BB
:103E90000090002C00D138BD01F07CFB002001F027
:103EA0001BFA03200002FCF7B9FF01230022694638
:103EB000104601F065FA2B4600222146104601F01B
:103EC0005FFA03200002FCF7C9FF002001F012FA9C
:103ED00001F06EFB00BFDEE710B5044621468020EE
:103EE00000F01FF810BD38B504462002401C0090B9
:103EF00001F050FB002001F0EFF903200002FCF775
:103F00008DFF022300226946104601F039FA032092
:103F10000002FCF7A3FF002001F0ECF901F048FBE0
:103F200038BD38B505460C46200280212943084398
:103F3000009001F02FFB03200002FCF76FFF02232B
:103F400000226946104601F01BFA03200002FCF72C
:103F500085FF01F02DFB38BD10B5FFF79BFEFFF785
:103F6000C1FE08480078012805D0022807D106487C
:103F70000068804704E005480068804700E000BF13
:103F800000BF10BD68F0FF1F78F0FF1F74F0FF1F27
:103F900010B500F0C5F80848FCF760FF002001F0FC
:103FA000B7F903200002FCF759FFFFF743FF002099
:103FB000FFF7DEFD10BD00001E04000030B47446A3
:103FC000641E2578641CAB4204D3635D5B00E31878
:103FD00030BC18471D46F8E7002805DBC206D20EA4
:103FE00001219140014A11607047000000E100E0AA
:103FF00010B5002819DB1A4A03231B02D2188308C4
:104000009B00D2588307DC0EFF23A3409A438B0703
:104010001B0E8407E40EA3401A43114B0324240211
:104020001B198408A4001A5118E00E4A03071B0F3D
:10403000083B9B089B00D2588307DC0EFF23A3405C
:104040009A438B071B0E8407E40EA3401A43054BCB
:104050000407240F083CA408A4001A5110BD000056
:1040600000E100E01CED00E0EFF305807047EFF3A6
:104070001080704710B5044600F01CFC002804D0E6
:104080000021C943206800F075FA10BD10B5044640
:10409000206800F0B5FA10BD10B50446002000F00D
:1040A000CFFA20602068002800D110BD0120FCE775
:1040B00010B5044600F0FEFB002802D0206800F096
:1040C0001FFB10BD10B500F07FF910BD10B5044600
:1040D000002C1CD10320FCF7A7FD012200210D4874
:1040E000FDF79AF8012200210B48FCF725FF022278
:1040F00005210A48FDF790F8022206210748FDF73E
:104100008BF8022207210548FDF786F800E000BF82
:1041100000BF10BD00C00440C0F00F4000B004401C
:1041200010B50220FCF780FD012203211C48FDF799
:1041300073F8002203211B48FCF7FEFE0122042134
:104140001748FDF769F8002204211648FCF7F4FE31
:104150000020FCF769FD012213211348FDF75CF8EC
:10416000002213210F488038FCF7E6FE01221221BD
:104170000D48FDF751F8002212210A488038FCF75B
:10418000DBFE0420FCF750FD01221E210748FDF74D
:1041900043F801221E2103488030FCF7CDFE10BDFC
:1041A00000B0044080F00F400090044000D0044074
:1041B00010B5FFF7DBF800F007F9FEF7E1F9FCF7BF
:1041C00032FB00F025F9002010BD000070B5054657
:1041D000FFF74AFF002807D1FFF749FF002806D064
:1041E00007480068022802D10524E44305E00024C2
:1041F000002D02D0284601F04EFA204670BD000086
:10420000B0F0FF1F70B504460026FFF72DFF002811
:1042100028D1FFF72CFF002803D01348006802289C
:1042200020D00025ED43002C0FD0A068002804D03A
:10423000E068202801D3012508E0A068002805D106
:10424000E068002802D1002500E00025012D04D1FE
:10425000A06801F07BFB064604E0002D02D101F0CE
:1042600065FB0646304670BDB0F0FF1F70B50646D0
:104270000D46002E03D0280E0006002802D003248D
:10428000E4431CE0FFF7F0FE002807D1FFF7EFFE44
:1042900000280FD00B48006802280BD100222946C5
:1042A000304601F0B5FB012801D12C4607E002247D
:1042B000E44304E02946304601F056FB044620461C
:1042C00070BD0000B0F0FF1FFFB583B00D4616466D
:1042D0001F460398002803D0280E0006002802D0AD
:1042E0000324E44340E0FFF7BFFE002807D1FFF7B7
:1042F000BEFE002806D01E480068022802D1052410
:10430000E44331E0F007C00F002802D00120029002
:1043100001E00020029002203040002802D000205E
:10432000019001E00120019000972946029B019A2B
:10433000039801F07DFB0446F007C00F002809D068
:10434000A54211D0002F02D00124E4430CE0022446
:10435000E44309E028462040002805D1002F01D081
:10436000841E01E00224E443204607B0F0BD0000B3
:10437000B0F0FF1F10B5FFF777FE002807D1FFF759
:1043800076FE002806D00F480068022802D10024DB
:10439000E44315E001F09AFF002805D0012806D07B
:1043A000022803D102240AE0032408E000BF0548E4
:1043B0000068012801D1012400E0002400BF00BFF3
:1043C000204610BDB0F0FF1F10B5FFF74DFE0028CE
:1043D00007D1FFF74CFE002806D00B4800680228E2
:1043E00002D10524E4430DE007480068002807D106
:1043F000064801F075F8012003490860002401E037
:104400000024E443204610BDB0F0FF1FB4F0FF1FAE
:1044100010B5FFF729FE002807D1FFF728FE002876
:1044200006D00B480068022802D10524E4430CE0C2
:1044300007480068012806D102200549086001F0FC
:10444000D3F9002401E00024E443204610BD00001D
:10445000B0F0FF1FF8B505460E461C460027FFF7D3
:1044600003FE002807D1FFF702FE002816D01748E8
:104470000068022812D1002D03D0002E01D0002C9C
:1044800002D00327FF431FE000223146284601F0F7
:1044900070FD012818D00227FF4315E0002D01D040
:1044A000002E02D10327FF430EE0002322463146AF
:1044B000284601F0A9FB012806D0002C02D00127D4
:1044C000FF4301E00227FF433846F8BDB0F0FF1F6D
:1044D000FEB505460E46144600200190FFF7C4FDC8
:1044E000002842D1FFF7C3FD002803D02048006810
:1044F00002283AD0002D38D0002E36D00027FF43B6
:10450000002C1DD0A06800280CD0E068502809D3EA
:104510002069002806D0284670436169814201D392
:1045200001270EE0A06800280BD1E068002808D120
:104530002069002805D16069002802D1002700E029
:104540000027012F09D10020009031462846A3689A
:10455000226901F044FB019007E0002F05D1002201
:104560003146284601F01AFB01900198FEBD00007B
:10457000B0F0FF1FF8B505460C466E087600EF0751
:10458000FF0F00200090FFF76FFD002807D1FFF715
:104590006EFD002807D019480068022803D10520C5
:1045A000C043009027E0002E02D1301F009022E08F
:1045B000002F0FD02146304601F017FD01281AD0F8
:1045C000002C03D00120C043009014E00220C0431F
:1045D000009010E0002322461946304601F014FBFB
:1045E000012808D0002C03D00120C043009002E035
:1045F0000220C04300900098F8BD0000B0F0FF1FFB
:1046000070B505466E087600FFF72EFD002807D12D
:10461000FFF72DFD002806D008480068022802D1C7
:104620000524E44307E0002E01D1341F03E00024F9
:10463000304600F0FFFF204670BD0000B0F0FF1FC5
:10464000F8B5044600200090FFF70EFD002852D177
:10465000FFF70DFD002803D02848006802284AD043
:10466000002C01D0666800E00026F007C00F00288B
:1046700001D0012500E000250820304008283AD06C
:104680000027FF43002C0FD0A068002804D0E0686A
:10469000502801D3012708E0A068002805D1E06870
:1046A000002802D1002700E00027012F0DD1002DA6
:1046B00005D00420A16801F05EFA009012E001200C
:1046C000A16801F058FA00900CE0002F0AD1002DEB
:1046D00004D0042001F040FA009003E0012001F032
:1046E0003BFA00900098002805D0002D03D001214E
:1046F0000098084300900098F8BD0000B0F0FF1F3C
:10470000F8B5044665086D00E707FF0F0026FFF7C0
:10471000ABFC002807D1FFF7AAFC002806D0104800
:104720000068022802D10526F64317E0002D01D1CA
:104730002E1F13E0002F07D0284601F001FC0128AE
:104740000CD00226F64309E000231A4619462846F3
:1047500001F03AFB012801D00226F6433046F8BDAD
:10476000B0F0FF1FF8B504460D462646002E03D0D4
:10477000E80FC007002802D00325ED4322E0FFF731
:1047800073FC002807D1FFF772FC002810D00E48F8
:10479000006802280CD1002003460122294600901F
:1047A000304601F01BFD01280CD00025ED4309E047
:1047B000002301222946304601F0B8FC012801D02F
:1047C0000025ED432846F8BDB0F0FF1FF7B586B0D1
:1047D000144600200390FFF747FC002865D1FFF73F
:1047E00046FC002803D03248006802285DD00698B5
:1047F00000285AD0802618250020059005A804908E
:104800000027FF43002C31D02068002801D0206809
:104810000490A069002800D0A569002D06D0382D8D
:1048200004D82079C007C00F002802D0002009B0AA
:10483000F0BD6069002800D06669A06800280AD031
:10484000E0685C2807D32069002804D0606900284C
:1048500001D001270BE0A068002808D1E0680028FB
:1048600005D12069002802D1002700E00027012F90
:104870000CD12169A0680095019102903246079BF6
:104880000499069801F02FFC03900EE0002F0CD144
:1048900003A8B2B200950190079B0499069801F015
:1048A000F1FB012801D0002003900398BFE700002E
:1048B000B0F0FF1F10B508480078002809D1FFF7B5
:1048C00059FD012803DD01200349087010BD0020B7
:1048D000FCE70120FAE70000AEF0FF1FF8B505463F
:1048E0000E461748076817480068001D00F07EFD57
:1048F000681C002808D1002E06D012480168091D46
:10490000114800F0E1FD1AE07C190E48006844608F
:10491000BC4207D20B480168091D0C48006800F032
:10492000B8FD0CE007480168091D0948006800F05F
:10493000B0FD08480068844201D206480460F8BD12
:10494000F8F0FF1FE4F0FF1FE8290020ECF0FF1F44
:10495000E8F0FF1F14F1FF1F10B5044600F01AFE27
:1049600022480068401C214908602148006800284E
:1049700008D11F4804600846006801280ED100F0E5
:10498000A1F90BE01B480068002807D1184800680F
:10499000C06AE16A884201D8154804601648006878
:1049A000401C154908600846006860641349E06AC5
:1049B0000968884202D91149E06A08601422E16A54
:1049C00051430F4A8818211D00F07EFD00F0F0FDD4
:1049D00008480068002807D005480068C06AE16AF6
:1049E000884201D200F01AFE10BD0000F4F0FF1F53
:1049F000E4F0FF1F00F1FF1F10F1FF1FFCF0FF1F8D
:104A00003825002008B500F0C5FD0E4800680028D4
:104A100015D10D4800F02DFD0C4800F02AFD0A4884
:104A20000B49086009480B49086000200A4B0B4AF3
:104A300010210090052001F0D2F80249086000F032
:104A4000B7FD08BD28F1FF1FFC290020102A002017
:104A500020F1FF1F24F1FF1F242A0020742A0020C8
:104A600070B525E000F004FF14480068002801D16B
:104A7000012000E00020054601F074FD002D17D153
:104A800000F088FD0D48C068C468201D00F0AEFC31
:104A90000B480068401E0A4908600A480068401E2A
:104AA0000849086000F084FD204600F063F800BF6C
:104AB000044800680028D5D170BD0000D42900202A
:104AC000F4F0FF1FF0F0FF1F70B504460D46206C98
:104AD00000280ED0216CE0684018E0606168E06852
:104AE000884201D32068E0602846226CE168FBF729
:104AF0008FFC70BDF8B504460F46154600200090A7
:104B0000A66B206C002809D1206800282ED160688F
:104B100001F084FC00900020606027E0002D0FD1A0
:104B20003946226CA068FBF773FC216CA068401822
:104B3000A0606168A068884218D32068A06015E072
:104B40003946226CE068FBF763FC216CE068401A90
:104B5000E0602168E068884203D2216C6068401AF6
:104B6000E060022D02D1002E00D0761E701CA063E2
:104B70000098F8BD10B504465920005D002806D104
:104B8000206B00F023FD204600F020FD06E05920B8
:104B9000005D012802D1204600F018FD10BD000084
:104BA0000146094A12681268002A01D1012200E078
:104BB00000220A600A68002A04D1034A1268D268F7
:104BC000106800E00020704720F1FF1F00BFFFF7D2
:104BD00047FF034800680128F9D900F01FFDF6E7F8
:104BE0003825002010B50446002C09D00020606054
:104BF0002060E06000231A461946204601F0E4F8E0
:104C000010BDFFB581B006460D4617460A9C002D23
:104C100001D1246000E02760E6632564012120467D
:104C200001F096F84C210498085505B0F0BDFFB589
:104C300081B00F460A9E0C9C039A9100A522206B1E
:104C4000FBF727FC216B0398401E8000081800909A
:104C50000098C008C0000090002508E0795D20465B
:104C600034304155785D002800D102E06D1C102DD4
:104C7000F4D300BF002143200155382E00D337263E
:104C8000E662E66400202065201D00F0FFFB204660
:104C9000183000F0FBFB24613820801BA0616462A7
:104CA00000206065002158200155049A0199009860
:104CB00000F0E0FA20600B98002801D00B98046007
:104CC00005B0F0BD10B5002406E0142161430E4A82
:104CD000881800F0CEFB641C382CF6D30B4800F08B
:104CE000C8FB0B4800F0C5FB0A4800F0C2FB0A48AD
:104CF00000F0BFFB094800F0BCFB0448084908600D
:104D000003480849086010BD382500209829002074
:104D1000AC290020C0290020D4290020E829002047
:104D2000E8F0FF1FECF0FF1F10B50146164800E049
:104D3000006803688B42FBD3024643689B188B4292
:104D400004D143684C681B19436001460A464B680E
:104D50009B180468A34211D10C4C03682468A34239
:104D600008D04B68046864681B194B6003681B68B3
:104D70000B6005E0054B1B680B6001E003680B60EE
:104D8000884200D0016010BDC8F0FF1FD0F0FF1FA7
:104D9000F8B504460D4616461F4600200090656093
:104DA0002461B5420CD8F01BA169884202D30120CE
:104DB000009011E0211D0948006800F06AFB0BE03B
:104DC000BE4204D2BD4202D30120009004E0211D66
:104DD0000348006800F05DFB0098F8BD24F1FF1F58
:104DE00020F1FF1F70B5054600F0D4FBA86B00282A
:104DF00001D1012400E0002400F0DAFB204670BD60
:104E000070B5054600F0C6FBA86BE96B884201D17E
:104E1000012400E0002400F0CBFB204670BD000020
:104E2000F8B505460E4610480068C068C468201DE5
:104E300000F0DCFAE069012812D1A06941192B4683
:104E400032462046FFF7A4FF002809D00020034681
:104E50002A4601460090204601F026FC074600BF86
:104E60002046616A8847F8BD20F1FF1FF0B587B082
:104E70005DE00398002805DA04AF3A68B9687868FD
:104E8000904700BF0398002851DB059C606900280B
:104E900001D1012000E00020002802D1201D00F0F7
:104EA000A5FA02A800F0A2F8054603980300FFF750
:104EB00085F80A0A06082729340709282A3C00BF72
:104EC00000BF00BF00BF0498A269811803462A46AC
:104ED0002046FFF75DFF002811D02046616A884711
:104EE000E06901280BD1002000900498A1694218C4
:104EF00000231946204601F0D7FB064600BF15E007
:104F000000BF13E000BF0498A061A06941192B46BF
:104F10002A462046FFF73CFF08E02C20005D0028D1
:104F200002D1204600F052FB00E000BF00BF00238A
:104F30001A4603A90348006800F066FE002898D1CD
:104F400007B0F0BD28F1FF1FF8B505460C4600F08C
:104F50008FFC684600F04AF806460098002822D1E7
:104F6000002C08D1B54206D801F0FCFA314628469B
:104F7000FFF756FF19E0002C08D00C4800680068C5
:104F8000002801D1012000E000200446A91B224690
:104F90000748006800F059FB01F0E4FA002804D14A
:104FA00000F03CFB01E001F0DDFAF8BD24F1FF1F49
:104FB00028F1FF1F0B4909680968002901D1012167
:104FC00000E00021002904D00021C943064A1160F5
:104FD00006E004490968C968C868034A4168116065
:104FE00070470000E8F0FF1F14F1FF1F70B5044682
:104FF00001F07EF9054607480068854204D200F0BA
:105000001DF80120206001E00020206001480560BB
:10501000284670BD30F1FF1F10B57D21C90005483D
:105020000068FBF73FFA401E03494861072008610A
:1050300010BD0000C4F0FF1F00E000E0FEB526E058
:105040001C480068C06805681A480068C068C468E1
:10505000201D00F0CBF92046616A8847E0690128ED
:1050600015D1A0694619AE4207D966602461211D99
:105070001048006800F00DFA09E0002003462A46B7
:1050800001460090204601F00FFB019000BF094847
:1050900000680068002801D1012000E000200028FD
:1050A000CED00448076804480068024908600248F6
:1050B0000760FEBD20F1FF1F24F1FF1F72B600BF85
:1050C000FEE710B503460020002A05D11C460C401F
:1050D000002C06D0012004E01C460C408C4200D17C
:1050E000012010BD08B500BF6846FFF759FD044612
:1050F00020460099FFF728FFFFF7B8FEF4E770B5E8
:10510000044600F047FA4520055713E0606A00287E
:1051100001D1012000E00020002808D120462430E1
:1051200001F0ACF9002803D000F0C8FA00E003E079
:10513000681E45B2002DE9DC00BF0021C9434520AF
:10514000015500F035FA00F025FA4420055713E028
:105150002069002801D1012000E0002000280AD1A8
:105160002046103001F08AF9002801D000F0A6FA9C
:10517000681E45B200E001E0002DE9DC00BF00211F
:10518000C9434420015500F013FA70BDF8B5054637
:105190000020009000F06CFB29480068284000289F
:1051A00049D1002D09D008356807400F002804D0E8
:1051B0006807400F0821081A4519002D3BD02148E7
:1051C0000068854237D8204E3046046801E0264604
:1051D00024686068A84202D220680028F7D11B48E2
:1051E0000068844227D03068083000902068306022
:1051F0006068401B102807D967196068401B7860F9
:1052000065603846FFF790FD0E4960680968081A26
:105210000C490860084600680D490968884203D2B5
:10522000084800680A490860054960680968084339
:1052300060600020206001F095F90098F8BD000042
:10524000DCF0FF1FD4F0FF1FC8F0FF1FD0F0FF1FDE
:10525000D8F0FF1F06480068002806D004490968F6
:1052600008465030096D491C0160014800687047CC
:10527000E4F0FF1F001F01231B060360001F0160F5
:10528000001F034B03601438026020387047000091
:10529000BD50000070B504460D46FF2101310D4898
:1052A0000068FFF75FFAFF20F530FEF78FFFFF2160
:1052B000013108480068FFF755FAFF20F530FEF786
:1052C00085FF29462046FFF74DFAFF20F530FEF70F
:1052D0007DFF70BD80F0FF1F8100054A5158C978DD
:1052E00049084900491C8200014B9A58D170704707
:1052F000086900008100054A5158C97849084900E9
:105300008200024B9A58D170704700000869000073
:1053100070B505462846FEF7D9FE2846FBF7BAFCCD
:10532000A80012490C582046FDF79BFF012120469A
:10533000FDF7F3FF2046FDF78DFF2846FBF720FD24
:10534000064632460A492046FDF79CFF6078094927
:1053500008702846FBF714FD0646324606492046EB
:10536000FDF790FF60780549087070BD086900007E
:1053700000127A0088F0FF1F0024F40089F0FF1F5C
:10538000FEB507460C4615461E46B8001649085895
:105390000090002E00D1FEBD002C02D1002D00D1C6
:1053A000F9E71BE0002C02D020780190641C6846CD
:1053B0000379002211460098FDF7B8FF00BF00985E
:1053C000FDF757FF0028FAD00098FDF758FF01902D
:1053D000002D03D06846007928706D1C3046761E7B
:1053E0000028DFD100BFD6E70869000001460A693E
:1053F0004B68886898608B68486858605068884235
:1054000001D188685060002008611068401E10605B
:105410001068704705490968886904490968C96ABC
:105420003822511A014A126891617047E4F0FF1F57
:10543000034B0360034B0B60802313607047000035
:10544000402100209C210020034B0360034B0B6094
:1054500050231360704700009C230020F823002095
:10546000704770B504460D462946204600F07CFA88
:1054700070BD0146083141600021C9438160014689
:105480000831C160016100210160704700210161A4
:10549000704710B502460B685C1C002C01D11069E6
:1054A00007E01046083000E04068446824689C42E9
:1054B000FAD944684C604C68A160886041600A6118
:1054C0001468641C146010BD42684A6093688B6065
:1054D000936859609160086103685B1C03607047C2
:1054E000F1B582B00022002600960023DF00029E64
:1054F000BC1937E06668019620684607760F002ED3
:1055000007D0C01DC008C0002668871B019EF61B7F
:1055100001960146002B04D1194E31600026184F28
:105520007E60184E3568019E88190838C008C00092
:10553000144E30600026134F3F687E60114F3F6865
:105540003E600A46861A56600E4E36681660002D7A
:1055500000D02A605768009EBE1900965B1CDF00D1
:10556000029EBC196668002EC4D1074F009E3E60A3
:10557000064F009E3E600126F607054F3E60FEBDC9
:10558000C8F0FF1FD0F0FF1FD8F0FF1FD4F0FF1F9F
:10559000DCF0FF1F72B605480068401C0349086034
:1055A000BFF34F8FBFF36F8F70470000E0F0FF1F16
:1055B00005480068401E0449086008460068002845
:1055C00000D162B670470000E0F0FF1F70B50646DC
:1055D0003546002E1CD0083D2C460E4960680968EF
:1055E0000840002814D02068002811D109496068BB
:1055F00009688843606000F03BF907496068096802
:105600004018054908602046FFF78EFB00F0AAFF0E
:1056100070BD0000DCF0FF1FD4F0FF1F0120000769
:1056200003494860BFF34F8FBFF36F8F704700008F
:1056300000ED00E070B5044625464620405D002898
:1056400002D12846FFF7C2FF70BDF8B505460E46E9
:1056500017462C46FFF79EFF44210857401C0028A0
:1056600002D100214420015545210857401C002843
:1056700002D1002145200155FFF79AFFA06B0028B9
:1056800005D13A4631462046243000F02DF8204618
:10569000FFF735FDF8BD70B504460025002C08D095
:1056A00000F0E6F800212046FFF718F900F05AFF55
:1056B0000546002D01D1FFF7B1FF70BD0120014962
:1056C0000860704708F1FF1F70B505460C46054895
:1056D000016818312846FFF7DCFE01212046FFF75C
:1056E000FDF870BDE4F0FF1F70B506460D46144688
:1056F0000748016818313046FFF7E6FE002C01D05C
:105700000025ED4321462846FFF7E8F870BD00006C
:10571000E4F0FF1F70B506460C4615460120C00791
:1057200020430749096888610548016818313046F7
:10573000FFF7CAFE01212846FFF7D0F870BD000030
:10574000E4F0FF1F70B505462C46002D39D01D49E9
:10575000E06A0968C96A884233D2A069C00FC007ED
:10576000002805D117480068C06A3821081AA061CE
:105770001422E06A5043144A80186169814201D1C1
:10578000012000E00020002817D0201DFFF72EFE8A
:105790000C480068C06AE0620C49E06A0968884207
:1057A00002D90A49E06A08601422E16A5143064AB4
:1057B0008818211DFFF788FE03E002480068C06AD0
:1057C000E06270BDE4F0FF1F38250020FCF0FF1FF1
:1057D0000349096801600349096841607047000096
:1057E0000CF1FF1FF8F0FF1F10B586B000200590E8
:1057F000049003AA04A905A8FFF71AFE0022049941
:105800000598134600920191029012A11348039A41
:1058100000F069FC1249086008460068002801D0C1
:10582000012400E00024012C02D100F00BFF04460B
:10583000012C0CD172B60020C0430A490860012037
:105840000949086000200949086000F057F906B0CE
:1058500010BD000049444C4500000000CD4B000045
:1058600018F1FF1F14F1FF1F00F1FF1FF8F0FF1FD9
:1058700002480068401C0149086070471CF1FF1F86
:1058800070B524480068002803D001202249086030
:105890003EE000202049086020480068046B204D4D
:1058A00029462068884208D16068884205D1A068EE
:1058B000884202D1E068884205D018480168343136
:1058C0000068FFF7CDFD1748016800E0491E14206D
:1058D0004843154A1058002801D1012000E000205B
:1058E0000028F3D114224A430F4BD0184268526863
:1058F0004260024608324368934202D142685268CD
:1059000042604268D268054B1A600648016000BFD9
:1059100070BD00001CF1FF1F08F1FF1FE4F0FF1F26
:10592000A5A5A5A5FCF0FF1F3825002010B5202057
:10593000FFF72CFC0446002C06D000202060201D20
:10594000FFF797FD00202077204610BD70B5054673
:105950002C46002C06D000202060201DFFF789FD7A
:1059600001202077204670BDF3B587B006460020A1
:10597000039034460190201D04900498083005904F
:10598000FFF776FF0498C7682068089908432060ED
:1059900031E0786806903D6800200190280E0006EE
:1059A00002902D022D0A0121890602980840002844
:1059B00006D120682840002808D00120019005E089
:1059C00020682840A84201D10120019001980028B8
:1059D00010D00121090602980840002802D003983F
:1059E000284303900122520620681043014638469E
:1059F00000F084FD069F05988742CAD1216803986C
:105A00008143216000F0AEFD206809B0F0BD0000C8
:105A1000F8B504460D46164633462A462146034845
:105A200000F076FE07463846F8BD000063540000DB
:105A3000FFB585B00E461746059C002004900190E6
:105A4000FFF716FF206800903146089A0098FFF78C
:105A500038FB03900398002808D0009D00200E908A
:105A6000002F1FD02068B04320601BE00E98002854
:105A700001D1009D16E0002F04D0012109060498F1
:105A8000084304900898002804D00121890604984E
:105A900008430490049830430146201D0E9AFFF7F6
:105AA00039FE002500F05EFD02900E98002821D0FE
:105AB0000298002801D1FFF7B1FDFFF7ABFC0546C6
:105AC000012040062840002812D1FFF763FD256819
:105AD00031462846089AFFF7F4FA002804D0002F30
